:1000000012C02CC02BC02AC029C028C0A9C026C03D
:1000100025C024C023C022C021C020C01FC01EC0D4
:100020001DC01CC01BC011241FBECFE5D4E0DEBF25
:10003000CDBF10E0A0E6B0E0EEE8F4E002C005902D
:100040000D92A83BB107D9F720E0A8EBB0E001C0C2
:100050001D92AA3BB207E1F7D8D017C2D1CFAC9A14
:10006000AC9808958F7085BBFACFCF93C82F829537
:100070008F70F8DF8C2F8F70F5DF8DE08A95F1F7A8
:100080000000CF910895CF93C82F82958F70806222
:1000900085BBE5DFCF70C062C5BBE1DF8DE08A952F
:1000A000F1F70000CF91089581E0DFDF83EF91E069
:1000B0000197F1F700C000000895CF9385EA9EE014
:1000C0000197F1F700C00000C3E0C5BBC8DF80E0C6
:1000D00094E00197F1F700C00000C5BBC0DF91E2DA
:1000E0009A95F1F70000C5BBBADF8DE08A95F1F76C
:1000F000000082E085BBB3DF9DE09A95F1F7000038
:1001000088E2B3DF8CE0B1DFCFDF86E0CF91ADCF07
:10011000282F2F70982F907F822F11F4806801C0B4
:10012000806CA3CFFF920F931F93CF93DF93F82E92
:10013000C92FD62FB9DF0F2D1C2FC0E0CD1751F0DE
:10014000F80181918F019FDFCF3011F480E1E0DF72
:10015000CF5FF4CFDF91CF911F910F91FF90089562
:100160001F920F920FB60F9211248F938091B900B6
:1001700081508093B9008091B900811103C081E062
:100180008093B8008F910F900FBE0F901F9018951D
:10019000CF93DF9300D000D0CDB7DEB78091600061
:1001A00090916100A0916200B091630089839A836D
:1001B000AB83BC83FE01319680E0919198BB000037
:1001C00096B3907F903FB1F0AFE4B3EC1197F1F7A5
:1001D00000C00000903B61F020F4903759F48D5F2F
:1001E0000DC0903D19F0903E49F004C08F5F06C0ED
:1001F0008E5F04C08C5F803101F78FEF0F900F90FE
:100200000F900F90DF91CF910895CF93DF93CDB7EB
:10021000DEB728970FB6F894DEBF0FBECDBF8FE0D4
:1002200087BB90EF98BB9FEF94BB81BB46DFCE01AD
:1002300005967C0100E010E0C80112D1F70181931E
:100240007F010F5F1F4F04301105B1F780E189BFB7
:1002500083E294EF9BBD8ABD1FBC7894DD24D394C8
:100260000AE024E1C22E32E0732E1EBC12BA1CDF5B
:1002700060E184E690E056DF8BDF8A30E8F789831F
:1002800013DF84E045DF8AE2FEDED2BA1DBC1CBC6F
:100290000EBDC092B9001092B80011E079DF8F3F17
:1002A000F1F08A3070F4E1E0F0E0EC0FFD1FE10FB7
:1002B000F11D80838AE2E7DE1F5F81E0143079F46C
:1002C0000FC08A3061F4112351F093E0F92EF10E42
:1002D0008F2D1EDF80E2D7DE8F2D1ADF115080E0D8
:1002E0009091B800911103C08823C1F281E01EBC37
:1002F000882309F4BACF9D81898198139CC09E817F
:100300008A81981398C09F818B81981394C0988597
:100310008C81981390C002BBC7DE60E185E790E056
:1003200001DF1DBC1CBC0EBD86E08093B90010929D
:10033000B8002EDF8B3041F472BAB6DE6FE086E88B
:1003400090E0F0DE81E001C080E09091B800911172
:1003500003C0882371F381E01EBC882309F485CF94
:100360001DBC1CBC0EBDC092B9001092B80010E0BC
:100370000FDFF82EFFEF8F1739F189E08F15A8F006
:10038000E1E0F0E0EC0FFD1FE10FF11DF082111133
:1003900004C08ADE84E0BCDED2BA80E38F0D73DE57
:1003A0001F5F81E0143081F410C09AE0F9120CC094
:1003B000112351F083E0F82EF10E8F2DA9DE80E29B
:1003C00062DE8F2DA5DE115080E09091B800911172
:1003D00003C0882369F281E01EBC882309F445CF5D
:1003E000FE0131964F01CE0105965C01E12CF12C06
:1003F000F40111914F01612FC7013AD0F50111931A
:100400005F01FFEFEF1AFF0A84E0E816F10481F7BD
:100410001DBC1CBC0EBD86E08093B9001092B800D4
:1004200072BA42DE60E186E990E07CDE8091B8003D
:100430008823E1F313C01DBC1CBC0EBD86E0809375
:10044000B9001092B80084E082BB2EDE60E186EA3B
:1004500090E068DE8091B8008823E1F31EBC05CFF0
:10046000E199FECF9FBB8EBBE09A99278DB308958B
:10047000262FE199FECF9FBB8EBB2DBB0FB6F89404
:0E048000E29AE19A0FBE01960895F894FFCF1C
:10048E00FEFDFBF7496E6469717565206C61204352
:10049E006C617665003C3C204269656E76656E69DE
:1004AE00646F203E3E0043616D62696F206465207B
:1004BE00436C6176650020434C41564520414345CF
:1004CE00505441444100434C41564520494E434F00
:0804DE00525245435441000055
:00000001FF
